{
  "address": "0x93D28c80F8741Aff6CdaDb0FD4693A98b44668ab",
  "abi": [
    {
      "inputs": [
        {
          "internalType": "uint256[2]",
          "name": "_pA",
          "type": "uint256[2]"
        },
        {
          "internalType": "uint256[2][2]",
          "name": "_pB",
          "type": "uint256[2][2]"
        },
        {
          "internalType": "uint256[2]",
          "name": "_pC",
          "type": "uint256[2]"
        },
        {
          "internalType": "uint256[7]",
          "name": "_pubSignals",
          "type": "uint256[7]"
        }
      ],
      "name": "verifyProof",
      "outputs": [
        {
          "internalType": "bool",
          "name": "",
          "type": "bool"
        }
      ],
      "stateMutability": "view",
      "type": "function"
    }
  ],
  "transactionHash": "0xd6ab9aaf330f6bd5ce3d239f5a6dcddfe6401dd4bac001e1719226208196708a",
  "args": [],
  "numDeployments": 1,
  "solcInputHash": "1a536dbc3423897ab7b472461feb0dc8",
  "bytecode": "0x608060405234801561001057600080fd5b506107c0806100206000396000f3fe608060405234801561001057600080fd5b506004361061002b5760003560e01c8063c894e75714610030575b600080fd5b61004361003e366004610676565b610059565b60405161005091906106dc565b60405180910390f35b60006105aa565b7f30644e72e131a029b85045b68181585d2833e84879b9709143e1f593f00000018110610091576000805260206000f35b50565b600060405183815284602082015285604082015260408160608360076107d05a03fa9150816100c7576000805260206000f35b825160408201526020830151606082015260408360808360066107d05a03fa9150816100f7576000805260206000f35b505050505050565b7f18a0576a154815c36c8fb3e4dac9bf2f9a2a4fc9c0ebaadc977e32394d59e57485527f022d0ad845d8a2537e9ccb6eb4f460a446ff8d5871cd53c0e2eaeafbb7b9bd3060208601526000608086018661019c87357f2a249478aa73d3299dae681671a56890c0319de2f106504fd763f78329ffab1d7f1f879cb1cf3b2be142a5f702b092643cdb94b2518598fe07e97896a65d2c4e0e84610094565b6101ec60208801357f2e4a6ae499b39b6370059ebeb002d6db44769825cccf6c4d4b1b1bd6ad838c437f2b33f820209edb3198bf8ebabbd25aa4f4d77033f070fb6e2b2db4d18c2d90cd84610094565b61023c60408801357f0a888018a3ae6fab78bf8c355614526260739bdd40bf5c678639ad3d11930f937f18dbcd16d7463e3a0e037557bc868c9ed261bebebfcbc86f941b455ca7df0be384610094565b61028c60608801357f2b1bfc438ed1e26736aa66e2fb4261440bba7fab202fe24fb94f9acbaafcecd27f2247fd820fb3ac7efe35cae709da61fbfe9c4dbc54fbea851ddf69475d46a14084610094565b6102dc60808801357f04c69384d2052ba745f1c6cd2082e8bcaf85e2fc2e2e6b00409d85584a8ecebb7f0235b6b88479f5228396c939bf8955e7504cdb39c5e5e333a95486c7cf82c17b84610094565b61032c60a08801357f045aa56f93c551b262061b81c7417c0d32eb158f8d49920c45b33f46859010727f1bd3343e994f8b45d3455517df34741d62c8e987e41ae2121117da803bad8c2884610094565b61037c60c08801357f12beedbc56bfb97f9bf9e926030d7a7e18bbe7efaec61a5a9b5db829638b1ccf7f15e626a96ea69adf2f3b76f3c6ea873a95a39cc4fcc2cae29917df588431741b84610094565b8335825260008051602061072b833981519152602085013560008051602061072b83398151915203066020830152843560408301526020850135606083015260408501356080830152606085013560a08301527f2d4d9aa7e302d9df41749d5507949d05dbea33fbb16c643b22f599a2be6df2e260c08301527f14bedd503c37ceb061d8ec60209fe345ce89830a19230301f076caff004d192660e08301527f0967032fcbf776d1afc985f88877f182d38480a653f2decaa9794cbc3bf3060c6101008301527f0e187847ad4c798374d0d6732bf501847dd68bc0e071241e0213bc7fc13db7ab6101208301527f304cfbd1e08a704a99f5e847d93f8c3caafddec46b7a0d379da69a4d112346a76101408301527f1739c1b1a457a8c7313123d24d2f9192f896b7c63eea05a9d57f06547ad0cec8610160830152600088015161018083015260206000018801516101a083015260008051602061070b8339815191526101c08301526000805160206106eb8339815191526101e083015260008051602061074b83398151915261020083015260008051602061076b8339815191526102208301528535610240830152602086013561026083015260008051602061070b8339815191526102808301526000805160206106eb8339815191526102a083015260008051602061074b8339815191526102c083015260008051602061076b8339815191526102e08301526020826103008460086107d05a03fa9151909116979650505050505050565b60405161038081016040526105c26000840135610060565b6105cf6020840135610060565b6105dc6040840135610060565b6105e96060840135610060565b6105f66080840135610060565b61060360a0840135610060565b61061060c0840135610060565b61061d60e0840135610060565b61062a818486888a6100ff565b8060005260206000f35b806040810183101561064857610648600080fd5b92915050565b806080810183101561064857610648600080fd5b8060e0810183101561064857610648600080fd5b6000806000806101e0858703121561069057610690600080fd5b600061069c8787610634565b94505060406106ad8782880161064e565b93505060c06106be87828801610634565b9250506101006106d087828801610662565b91505092959194509250565b81151581526020810161064856fe1800deef121f1e76426a00665e5c4479674322d4f75edadd46debd5cd992f6ed198e9393920d483a7260bfb731fb5d25f1aa493335a9e71297e485b7aef312c230644e72e131a029b85045b68181585d97816a916871ca8d3c208c16d87cfd47090689d0585ff075ec9e99ad690c3395bc4b313370b38ef355acdadcd122975b12c85ea5db8c6deb4aab71808dcb408fe3d1e7690c43d37b4ce6cc0166fa7daaa26469706673582212203339be88849764bad636d79dc762370a027069b48c7fc66c2da68c36bc6211cd64736f6c63430008120033",
  "devdoc": {
    "kind": "dev",
    "methods": {},
    "version": 1
  },
  "userdoc": {
    "kind": "user",
    "methods": {},
    "version": 1
  },
  "storageLayout": {
    "storage": [],
    "types": null
  }
}