{
  "address": "0x88839902b3FAE9db69940549EdB5D85a0894A7F8",
  "abi": [
    {
      "inputs": [
        {
          "internalType": "contract IVerifier",
          "name": "_verifier",
          "type": "address"
        }
      ],
      "stateMutability": "nonpayable",
      "type": "constructor"
    },
    {
      "inputs": [
        {
          "internalType": "address",
          "name": "",
          "type": "address"
        }
      ],
      "name": "isElegibleForLoan",
      "outputs": [
        {
          "internalType": "bool",
          "name": "",
          "type": "bool"
        }
      ],
      "stateMutability": "view",
      "type": "function"
    },
    {
      "inputs": [
        {
          "internalType": "uint256[2]",
          "name": "a",
          "type": "uint256[2]"
        },
        {
          "internalType": "uint256[2][2]",
          "name": "b",
          "type": "uint256[2][2]"
        },
        {
          "internalType": "uint256[2]",
          "name": "c",
          "type": "uint256[2]"
        },
        {
          "internalType": "uint256[5]",
          "name": "publicValues",
          "type": "uint256[5]"
        },
        {
          "internalType": "contract IZKSBT",
          "name": "zkSBT",
          "type": "address"
        },
        {
          "internalType": "uint256",
          "name": "sbtTokenId",
          "type": "uint256"
        }
      ],
      "name": "loanEligible",
      "outputs": [],
      "stateMutability": "nonpayable",
      "type": "function"
    }
  ],
  "transactionHash": "0x1213cc74a31f6cffaa65d77c812fa79079fe3967fbfcab2b5aba4609c1da378b",
  "args": [
    "0xB5ae2B52a356065364A455cfD27dd3E2e31fFa61"
  ],
  "numDeployments": 3,
  "solcInputHash": "fdf3bc85eccfed10f1eec2a40d171617",
  "bytecode": "0x608060405234801561001057600080fd5b50604051610eb2380380610eb283398101604081905261002f91610094565b600080546001600160a01b0319166001600160a01b03929092169190911790556100bd565b60006001600160a01b0382165b92915050565b600061006182610054565b61007b81610067565b811461008657600080fd5b50565b805161006181610072565b6000602082840312156100a9576100a9600080fd5b60006100b58484610089565b949350505050565b610de6806100cc6000396000f3fe608060405234801561001057600080fd5b50600436106100365760003560e01c8063b4f69cb81461003b578063d6c5cc9314610050575b600080fd5b61004e6100493660046106fb565b610089565b005b61007361005e36600461079d565b60016020526000908152604090205460ff1681565b60405161008091906107c8565b60405180910390f35b604083015160608085015160808601519091816100c0576040518060600160405280602c8152602001610cd2602c91399050610189565b81600114156100e9576040518060600160405280602d8152602001610cfe602d91399050610189565b8160021415610112576040518060600160405280602c8152602001610d85602c91399050610189565b816003141561013b576040518060600160405280602d8152602001610d58602d91399050610189565b8160041415610164576040518060600160405280602c8152602001610ca6602c91399050610189565b8160051415610189576040518060600160405280602d8152602001610d2b602d913990505b86516001146101b35760405162461bcd60e51b81526004016101aa906107d6565b60405180910390fd5b836001600160a01b0316866001600160a01b0316636352211e876040518263ffffffff1660e01b81526004016101e9919061082d565b60206040518083038186803b15801561020157600080fd5b505afa158015610215573d6000803e3d6000fd5b505050506040513d601f19601f820116820180604052508101906102399190610846565b6001600160a01b03161461025f5760405162461bcd60e51b81526004016101aa906108d3565b6040516309b24b3b60e41b81526000906001600160a01b03881690639b24b3b09061028e90899060040161082d565b60006040518083038186803b1580156102a657600080fd5b505afa1580156102ba573d6000803e3d6000fd5b505050506040513d6000823e601f3d908101601f191682016040526102e2919081019061099a565b905087600160200201516040516020016102fc91906109d4565b60405160208183030381529060405280519060200120816040516020016103239190610a0b565b60405160208183030381529060405280519060200120146103565760405162461bcd60e51b81526004016101aa90610a8c565b6000546040516334baeab960e01b81526001600160a01b03909116906334baeab99061038c908e908e908e908e90600401610b7c565b60206040518083038186803b1580156103a457600080fd5b505afa1580156103b8573d6000803e3d6000fd5b505050506040513d601f19601f820116820180604052508101906103dc9190610bcf565b6103f85760405162461bcd60e51b81526004016101aa90610bf0565b610423604051806040016040528060078152602001664164647265737360c81b815250868487610454565b505050506001600160a01b03166000908152600160208190526040909120805460ff19169091179055505050505050565b61049d8484848460405160240161046e9493929190610c64565b60408051601f198184030181529190526020810180516001600160e01b03166348e8889760e11b1790526104a3565b50505050565b80516a636f6e736f6c652e6c6f67602083016000808483855afa5050505050565b601f01601f191690565b634e487b7160e01b600052604160045260246000fd5b6104ed826104c4565b81018181106001600160401b038211171561050a5761050a6104ce565b6040525050565b600061051c60405190565b905061052882826104e4565b919050565b60006001600160401b03821115610546576105466104ce565b5060200290565b805b811461055a57600080fd5b50565b80356105688161054d565b92915050565b600061058161057c8461052d565b610511565b9050806020840283018581111561059a5761059a600080fd5b835b818110156105be57806105af888261055d565b8452506020928301920161059c565b5050509392505050565b600082601f8301126105dc576105dc600080fd5b60026105e984828561056e565b949350505050565b60006105ff61057c8461052d565b9050806040840283018581111561061857610618600080fd5b835b818110156105be578061062d88826105c8565b84525060209092019160400161061a565b600082601f83011261065257610652600080fd5b60026105e98482856105f1565b600061066d61057c8461052d565b9050806020840283018581111561068657610686600080fd5b835b818110156105be578061069b888261055d565b84525060209283019201610688565b600082601f8301126106be576106be600080fd5b60056105e984828561065f565b60006001600160a01b038216610568565b6000610568826106cb565b61054f816106dc565b8035610568816106e7565b6000806000806000806101e0878903121561071857610718600080fd5b600061072489896105c8565b965050604061073589828a0161063e565b95505060c061074689828a016105c8565b94505061010061075889828a016106aa565b9350506101a061076a89828a016106f0565b9250506101c061077c89828a0161055d565b9150509295509295509295565b61054f816106cb565b803561056881610789565b6000602082840312156107b2576107b2600080fd5b60006105e98484610792565b8015155b82525050565b6020810161056882846107be565b6020808252810161056881602d81527f54686520636c61696d20646f65736e277420736174697366792074686520717560208201526c32b93c9031b7b73234ba34b7b760991b604082015260600190565b806107c2565b602081016105688284610827565b805161056881610789565b60006020828403121561085b5761085b600080fd5b60006105e9848461083b565b604681526000602082017f5468652053425420646f65736e27742062656c6f6e6720746f2074686520616481527f6472657373207468617420697320747279696e6720746f20636c61696d20746860208201526532903637b0b760d11b604082015291505b5060600190565b6020808252810161056881610867565b60006001600160401b038211156108fc576108fc6104ce565b610905826104c4565b60200192915050565b60005b83811015610929578181015183820152602001610911565b8381111561049d5750506000910152565b600061094861057c846108e3565b90508281526020810184848401111561096357610963600080fd5b61096e84828561090e565b509392505050565b600082601f83011261098a5761098a600080fd5b81516105e984826020860161093a565b6000602082840312156109af576109af600080fd5b81516001600160401b038111156109c8576109c8600080fd5b6105e984828501610976565b60006109e08284610827565b50602001919050565b60006109f3825190565b610a0181856020860161090e565b9290920192915050565b6000610a1782846109e9565b9392505050565b604b81526000602082017f54686520726f6f74206f6620746865204d65726b6c652054726565277320646181527f746120646f65736e2774206d617463682074686520726f6f742073746f72656460208201526a081a5b881d1a194814d09560aa1b604082015291506108cc565b6020808252810161056881610a1e565b6000610aa88383610827565b505060200190565b6002818060005b83811015610adc578151610acb8782610a9c565b965060208301925050600101610ab7565b505050505050565b6002818060005b83811015610adc578151610aff8782610a9c565b965060208301925050600101610aeb565b6000610b1c8383610ae4565b505060400190565b6002818060005b83811015610adc578151610b3f8782610b10565b965060208301925050600101610b2b565b6005818060005b83811015610adc578151610b6b8782610a9c565b965060208301925050600101610b57565b6101a08101610b8b8287610ab0565b610b986040830186610b24565b610ba560c0830185610ab0565b610bb3610100830184610b50565b95945050505050565b80151561054f565b805161056881610bbc565b600060208284031215610be457610be4600080fd5b60006105e98484610bc4565b60208082528101610568816019815278141c9bdbd9881d995c9a599a58d85d1a5bdb8819985a5b1959603a1b602082015260400190565b6000610c31825190565b808452602084019350610c4881856020860161090e565b610c51816104c4565b9093019392505050565b6107c2816106cb565b60808082528101610c758187610c27565b9050610c846020830186610c5b565b8181036040830152610c968185610c27565b9050610bb3606083018461082756fe697320656c656769626c6520666f722061206c6f616e20776974682061206372656469742073636f7265203c697320656c656769626c6520666f722061206c6f616e20776974682061206372656469742073636f7265203d697320656c656769626c6520666f722061206c6f616e20776974682061206372656469742073636f726520213d697320656c656769626c6520666f722061206c6f616e20776974682061206372656469742073636f7265203c3d697320656c656769626c6520666f722061206c6f616e20776974682061206372656469742073636f7265203e3d697320656c656769626c6520666f722061206c6f616e20776974682061206372656469742073636f7265203ea26469706673582212207e267305747aba3aad8bf819be774e51a38ee5d905a3d3acc31c02f0de41aa3164736f6c63430008080033",
  "devdoc": {
    "author": "Miquel A. Cabot",
    "kind": "dev",
    "methods": {},
    "title": "Verify if user is eligible for a loan",
    "version": 1
  },
  "userdoc": {
    "kind": "user",
    "methods": {},
    "notice": "Tests if the user is eligible for a loan based on the credit score",
    "version": 1
  },
  "storageLayout": {
    "storage": [
      {
        "astId": 169,
        "contract": "contracts/VerifyCreditScore.sol:VerifyCreditScore",
        "label": "verifier",
        "offset": 0,
        "slot": "0",
        "type": "t_contract(IVerifier)155"
      },
      {
        "astId": 173,
        "contract": "contracts/VerifyCreditScore.sol:VerifyCreditScore",
        "label": "isElegibleForLoan",
        "offset": 0,
        "slot": "1",
        "type": "t_mapping(t_address,t_bool)"
      }
    ],
    "types": {
      "t_address": {
        "encoding": "inplace",
        "label": "address",
        "numberOfBytes": "20"
      },
      "t_bool": {
        "encoding": "inplace",
        "label": "bool",
        "numberOfBytes": "1"
      },
      "t_contract(IVerifier)155": {
        "encoding": "inplace",
        "label": "contract IVerifier",
        "numberOfBytes": "20"
      },
      "t_mapping(t_address,t_bool)": {
        "encoding": "mapping",
        "key": "t_address",
        "label": "mapping(address => bool)",
        "numberOfBytes": "32",
        "value": "t_bool"
      }
    }
  }
}