{
  "address": "0xb98CED7Bedf001FC8303fa01aC402E390C093B3C",
  "abi": [
    {
      "inputs": [
        {
          "internalType": "uint256[2]",
          "name": "a",
          "type": "uint256[2]"
        },
        {
          "internalType": "uint256[2][2]",
          "name": "b",
          "type": "uint256[2][2]"
        },
        {
          "internalType": "uint256[2]",
          "name": "c",
          "type": "uint256[2]"
        },
        {
          "internalType": "uint256[6]",
          "name": "input",
          "type": "uint256[6]"
        }
      ],
      "name": "verifyProof",
      "outputs": [
        {
          "internalType": "bool",
          "name": "r",
          "type": "bool"
        }
      ],
      "stateMutability": "view",
      "type": "function"
    }
  ],
  "transactionHash": "0xa3b23722ada002880ab1229801af010b2fa0d88357f27af0f617232c9f15a836",
  "args": [],
  "numDeployments": 1,
  "solcInputHash": "29f4596050898327e48e878711e229a6",
  "bytecode": "0x608060405234801561001057600080fd5b506110d6806100206000396000f3fe608060405234801561001057600080fd5b506004361061002b5760003560e01c8063f398789b14610030575b600080fd5b61012c60048036036101c081101561004757600080fd5b6040805180820182529183019291818301918390600290839083908082843760009201829052506040805180820190915293969594608081019493509150600290835b828210156100c8576040805180820182529080840286019060029083908390808284376000920191909152505050815260019091019060200161008a565b50506040805180820182529396959481810194935091506002908390839080828437600092019190915250506040805160c0818101909252929594938181019392509060069083908390808284376000920191909152509194506101409350505050565b604080519115158252519081900360200190f35b600061014a610f75565b6040805180820182528751815260208089015181830152908352815160808101835287515181840190815288518301516060808401919091529082528351808501855289840180515182525184015181850152828401528483019190915282518084018452875181528783015181840152848401528251600680825260e0820190945290929091820160c08036833701905050905060005b600681101561021b578481600681106101f757fe5b602002015182828151811061020857fe5b60209081029190910101526001016101e2565b506102268183610244565b6102355760019250505061023c565b6000925050505b949350505050565b60007f30644e72e131a029b85045b68181585d2833e84879b9709143e1f593f000000161026f610fa7565b61027761041c565b90508060800151518551600101146102cb576040805162461bcd60e51b81526020600482015260126024820152711d995c9a599a595c8b5898590b5a5b9c1d5d60721b604482015290519081900360640190fd5b6102d3610fee565b50604080518082019091526000808252602082018190525b86518110156103a5578387828151811061030157fe5b60200260200101511061035b576040805162461bcd60e51b815260206004820152601f60248201527f76657269666965722d6774652d736e61726b2d7363616c61722d6669656c6400604482015290519081900360640190fd5b61039b826103968560800151846001018151811061037557fe5b60200260200101518a858151811061038957fe5b60200260200101516109d5565b610a6a565b91506001016102eb565b506103c88183608001516000815181106103bb57fe5b6020026020010151610a6a565b90506103fe6103da8660000151610afb565b8660200151846000015185602001518587604001518b604001518960600151610b87565b61040e5760019350505050610416565b600093505050505b92915050565b610424610fa7565b6040805180820182527f0d943c17022def01c15fee9108fd023e0f069703a2d8a38194e1852fa87b4d2e81527f08ecc81f5588c488a295d392553ec1f8e86d67860f9979941a7722d4603003c06020808301919091529083528151608080820184527f0884777a2f5884899bb78472e70ba904b3b5ba88975569999a43625b7c5a394f8285019081527f2bd6abec1095e7a04f41cfd1ceba1970eaca45beb4e74b56d80c148c85bdc20c606080850191909152908352845180860186527f19d53b497f73307c90f5207aa0d024fa4118ca9af15cabf0b6b8fea092e25e4181527f1c37cb6d757491a0eb1c70258c7f323df59287e6c11e5e68b164ca2c5d8f2599818601528385015285840192909252835180820185527f198e9393920d483a7260bfb731fb5d25f1aa493335a9e71297e485b7aef312c28186019081527f1800deef121f1e76426a00665e5c4479674322d4f75edadd46debd5cd992f6ed828501528152845180860186527f090689d0585ff075ec9e99ad690c3395bc4b313370b38ef355acdadcd122975b81527f12c85ea5db8c6deb4aab71808dcb408fe3d1e7690c43d37b4ce6cc0166fa7daa818601528185015285850152835190810184527f155ba3b5a7e8d3aeb52d52227bcec5b066b1620a008ec9d70c5b267fe25d6c878185019081527f0c744c1dff4a913c920ef99e14f81ee33ba5ffa218a90225d74f1a55977f1e71828401528152835180850185527f137f81fb3a98ef9daf885929f9ba0dc246c32c34ee9ecb0e2ec6ad43b1a5eaf481527f1d2b9e23a2c872f586eeadf8d35cdddeb68897e54051cf22a21f4d221a3671ab818501528184015290840152815160078082526101008201909352919082015b6106a8610fee565b8152602001906001900390816106a057505060808201908152604080518082019091527f04ca900912d8241658c456ac1ea6e435307285ecf13471c241a32fc388d9875b81527f1eec7137005a5815dd4afec6bfc582b1073f8d94480ab5108ff6c53deec6122660208201529051805160009061072157fe5b602002602001018190525060405180604001604052807f160f5c3dc6da99ea935270efbdc25836a45dbbaf004295fb31456dfd6cd645bf81526020017f18c3f08b36b2e4a52bcdd89e73c4ce8d036181897befe53fac4f38fa98db810d815250816080015160018151811061079257fe5b602002602001018190525060405180604001604052807f2bcf4aa3b8fbc300bfb97d756ac65dedf3b6f5ffdb7d330d389d1c06779f495681526020017f23497dd28c60de670688a26577cb9cee91686961460ef11837ef4fa55b581eed815250816080015160028151811061080357fe5b602002602001018190525060405180604001604052807f247265fc84b1113c5ac7a9f2eb649895366a826dedd0c9ff146804b79fe4ac2281526020017f11f9294348262870eaffb4450528ba21124ad9fc4895f1cd1c0814ac6de9f07f815250816080015160038151811061087457fe5b602002602001018190525060405180604001604052807f12f0454f7109875c3dac3c5392ec9fe3fc346d8b90bb03f53ea2bf4b0b04a71a81526020017f21dd42eaef1bd0a2f3e58d5088f380168c60ec6c4cb686d5f8dfe3c46146d32781525081608001516004815181106108e557fe5b602002602001018190525060405180604001604052807f10afff6a1cbc6c2dc7f5a0969b62171ea3d35cdad808e80110d93770b60898ce81526020017f087e24bc4e0e982b68dcf4565b88d5aea5327231e3a0a11be93e0d385bea605f815250816080015160058151811061095657fe5b602002602001018190525060405180604001604052807f11d61de283571bb83f5ddb0d9a76f1a6d66e9172201bd08d105959a638d5417581526020017f04c42e045bd6497f24f358b98671e5d025e8d2d275913a53dc1a62747ac7f97c81525081608001516006815181106109c757fe5b602002602001018190525090565b6109dd610fee565b6109e5611008565b835181526020808501519082015260408101839052600060608360808460076107d05a03fa9050808015610a1857610a1a565bfe5b5080610a62576040805162461bcd60e51b81526020600482015260126024820152711c185a5c9a5b99cb5b5d5b0b59985a5b195960721b604482015290519081900360640190fd5b505092915050565b610a72610fee565b610a7a611026565b8351815260208085015181830152835160408301528301516060808301919091526000908360c08460066107d05a03fa9050808015610a18575080610a62576040805162461bcd60e51b81526020600482015260126024820152711c185a5c9a5b99cb5859190b59985a5b195960721b604482015290519081900360640190fd5b610b03610fee565b81517f30644e72e131a029b85045b68181585d97816a916871ca8d3c208c16d87cfd4790158015610b3657506020830151155b15610b565750506040805180820190915260008082526020820152610b82565b60405180604001604052808460000151815260200182856020015181610b7857fe5b0683038152509150505b919050565b60408051600480825260a0820190925260009160609190816020015b610bab610fee565b815260200190600190039081610ba357505060408051600480825260a0820190925291925060609190602082015b610be1611044565b815260200190600190039081610bd95790505090508a82600081518110610c0457fe5b60200260200101819052508882600181518110610c1d57fe5b60200260200101819052508682600281518110610c3657fe5b60200260200101819052508482600381518110610c4f57fe5b60200260200101819052508981600081518110610c6857fe5b60200260200101819052508781600181518110610c8157fe5b60200260200101819052508581600281518110610c9a57fe5b60200260200101819052508381600381518110610cb357fe5b6020026020010181905250610cc88282610cd7565b9b9a5050505050505050505050565b60008151835114610d28576040805162461bcd60e51b81526020600482015260166024820152751c185a5c9a5b99cb5b195b99dd1a1ccb59985a5b195960521b604482015290519081900360640190fd5b8251600681026060816001600160401b0381118015610d4657600080fd5b50604051908082528060200260200182016040528015610d70578160200160208202803683370190505b50905060005b83811015610ef557868181518110610d8a57fe5b602002602001015160000151828260060260000181518110610da857fe5b602002602001018181525050868181518110610dc057fe5b602002602001015160200151828260060260010181518110610dde57fe5b602002602001018181525050858181518110610df657fe5b602090810291909101015151518251839060026006850201908110610e1757fe5b602002602001018181525050858181518110610e2f57fe5b60209081029190910101515160016020020151828260060260030181518110610e5457fe5b602002602001018181525050858181518110610e6c57fe5b602002602001015160200151600060028110610e8457fe5b6020020151828260060260040181518110610e9b57fe5b602002602001018181525050858181518110610eb357fe5b602002602001015160200151600160028110610ecb57fe5b6020020151828260060260050181518110610ee257fe5b6020908102919091010152600101610d76565b50610efe611064565b6000602082602086026020860160086107d05a03fa9050808015610a18575080610f67576040805162461bcd60e51b81526020600482015260156024820152741c185a5c9a5b99cb5bdc18dbd9194b59985a5b1959605a1b604482015290519081900360640190fd5b505115159695505050505050565b6040518060600160405280610f88610fee565b8152602001610f95611044565b8152602001610fa2610fee565b905290565b6040518060a00160405280610fba610fee565b8152602001610fc7611044565b8152602001610fd4611044565b8152602001610fe1611044565b8152602001606081525090565b604051806040016040528060008152602001600081525090565b60405180606001604052806003906020820280368337509192915050565b60405180608001604052806004906020820280368337509192915050565b6040518060400160405280611057611082565b8152602001610fa2611082565b60405180602001604052806001906020820280368337509192915050565b6040518060400160405280600290602082028036833750919291505056fea26469706673582212202fd67c07349afe3e15e17519fc1f755814b73f157903bb0279e9a9d6261beb0e64736f6c634300060b0033",
  "devdoc": {
    "kind": "dev",
    "methods": {
      "verifyProof(uint256[2],uint256[2][2],uint256[2],uint256[6])": {
        "returns": {
          "r": " bool true if proof is valid"
        }
      }
    },
    "version": 1
  },
  "userdoc": {
    "kind": "user",
    "methods": {},
    "version": 1
  },
  "storageLayout": {
    "storage": [],
    "types": null
  }
}