{
  "address": "0xDe0E3CcbDAB5167a2d908F3a278F0157f04c58C1",
  "abi": [
    {
      "inputs": [
        {
          "internalType": "contract IVerifier",
          "name": "_verifier",
          "type": "address"
        }
      ],
      "stateMutability": "nonpayable",
      "type": "constructor"
    },
    {
      "inputs": [
        {
          "internalType": "address",
          "name": "",
          "type": "address"
        }
      ],
      "name": "isElegibleForLoan",
      "outputs": [
        {
          "internalType": "uint256",
          "name": "",
          "type": "uint256"
        }
      ],
      "stateMutability": "view",
      "type": "function"
    },
    {
      "inputs": [
        {
          "internalType": "uint256[2]",
          "name": "a",
          "type": "uint256[2]"
        },
        {
          "internalType": "uint256[2][2]",
          "name": "b",
          "type": "uint256[2][2]"
        },
        {
          "internalType": "uint256[2]",
          "name": "c",
          "type": "uint256[2]"
        },
        {
          "internalType": "uint256[4]",
          "name": "publicValues",
          "type": "uint256[4]"
        },
        {
          "internalType": "contract IZKPSBT",
          "name": "zkpSBT",
          "type": "address"
        },
        {
          "internalType": "uint256",
          "name": "sbtTokenId",
          "type": "uint256"
        }
      ],
      "name": "loanEligible",
      "outputs": [],
      "stateMutability": "nonpayable",
      "type": "function"
    }
  ],
  "transactionHash": "0x1e26938fee1e9972a1c3b08e71540c52a5b6ecc502caac3dfa3ce8886383e745",
  "args": [
    "0x1E892d8C450497d61bC1ef9A573E687E79B6B8A3"
  ],
  "numDeployments": 2,
  "solcInputHash": "8b922e98927e98ed562f14122caaf201",
  "bytecode": "0x608060405234801561001057600080fd5b50604051610cf3380380610cf383398101604081905261002f91610065565b600080546001600160a01b0319166001600160a01b03929092169190911790556100c1565b805161005f816100aa565b92915050565b60006020828403121561007a5761007a600080fd5b60006100868484610054565b949350505050565b60006001600160a01b03821661005f565b600061005f8261008e565b6100b38161009f565b81146100be57600080fd5b50565b610c23806100d06000396000f3fe608060405234801561001057600080fd5b50600436106100365760003560e01c8063cb1ae0b91461003b578063d6c5cc9314610050575b600080fd5b61004e610049366004610629565b610086565b005b61007061005e3660046105e7565b60016020526000908152604090205481565b60405161007d9190610a88565b60405180910390f35b6040830151606084015184516001146100ba5760405162461bcd60e51b81526004016100b1906109f0565b60405180910390fd5b816001600160a01b0316846001600160a01b0316636352211e856040518263ffffffff1660e01b81526004016100f09190610a88565b60206040518083038186803b15801561010857600080fd5b505afa15801561011c573d6000803e3d6000fd5b505050506040513d601f19601f820116820180604052508101906101409190610608565b6001600160a01b0316146101665760405162461bcd60e51b81526004016100b190610a78565b6040516309b24b3b60e41b81526000906001600160a01b03861690639b24b3b090610195908790600401610a88565b60006040518083038186803b1580156101ad57600080fd5b505afa1580156101c1573d6000803e3d6000fd5b505050506040513d6000823e601f3d908101601f191682016040526101e991908101906106d8565b90508560016020020151604051602001610203919061094a565b604051602081830303815290604052805190602001208160405160200161022a9190610937565b604051602081830303815290604052805190602001201461025d5760405162461bcd60e51b81526004016100b1906109e0565b600054604051635fe8c13b60e01b81526001600160a01b0390911690635fe8c13b90610293908c908c908c908c9060040161095f565b60206040518083038186803b1580156102ab57600080fd5b505afa1580156102bf573d6000803e3d6000fd5b505050506040513d601f19601f820116820180604052508101906102e391906106b7565b6102ff5760405162461bcd60e51b81526004016100b190610a41565b610342604051806040016040528060078152602001664164647265737360c81b815250846040518060600160405280602d8152602001610bc1602d913985610365565b506001600160a01b03909116600090815260016020526040902055505050505050565b6103ae8484848460405160240161037f949392919061099f565b60408051601f198184030181529190526020810180516001600160e01b03166348e8889760e11b1790526103b4565b50505050565b80516a636f6e736f6c652e6c6f67602083016000808483855afa5050505050565b60006103e86103e384610ab2565b610a96565b9050808285604086028201111561040157610401600080fd5b60005b8581101561042f57816104178882610560565b84525060209092019160409190910190600101610404565b5050509392505050565b60006104476103e384610ab2565b9050808285602086028201111561046057610460600080fd5b60005b8581101561042f578161047688826105dc565b8452506020928301929190910190600101610463565b600061049a6103e384610ab2565b905080828560208602820111156104b3576104b3600080fd5b60005b8581101561042f57816104c988826105dc565b84525060209283019291909101906001016104b6565b60006104ed6103e384610ad2565b90508281526020810184848401111561050857610508600080fd5b610513848285610b19565b509392505050565b803561052681610b92565b92915050565b805161052681610b92565b600082601f83011261054b5761054b600080fd5b60026105588482856103d5565b949350505050565b600082601f83011261057457610574600080fd5b6002610558848285610439565b600082601f83011261059557610595600080fd5b600461055884828561048c565b805161052681610ba9565b600082601f8301126105c1576105c1600080fd5b81516105588482602086016104df565b803561052681610bb1565b803561052681610bba565b6000602082840312156105fc576105fc600080fd5b6000610558848461051b565b60006020828403121561061d5761061d600080fd5b6000610558848461052c565b6000806000806000806101c0878903121561064657610646600080fd5b60006106528989610560565b965050604061066389828a01610537565b95505060c061067489828a01610560565b94505061010061068689828a01610581565b93505061018061069889828a016105d1565b9250506101a06106aa89828a016105dc565b9150509295509295509295565b6000602082840312156106cc576106cc600080fd5b600061055884846105a2565b6000602082840312156106ed576106ed600080fd5b81516001600160401b0381111561070657610706600080fd5b610558848285016105ad565b600061071e838361077d565b505060400190565b60006107328383610931565b505060200190565b61074381610afd565b82525050565b6002818060005b838110156107755781516107648782610712565b965060208301925050600101610750565b505050505050565b6002818060005b838110156107755781516107988782610726565b965060208301925050600101610784565b6002818060005b838110156107755781516107c48782610726565b9650602083019250506001016107b0565b6004818060005b838110156107755781516107f08782610726565b9650602083019250506001016107dc565b600061080b825190565b610819818560208601610b19565b9290920192915050565b600061082d825190565b808452602084019350610844818560208601610b19565b61084d81610b88565b9093019392505050565b604b81526000602082017f54686520726f6f74206f6620746865204d65726b6c652054726565277320646181527f746120646f65736e2774206d617463682074686520726f6f742073746f72656460208201526a081a5b881d1a194814d09560aa1b604082015291505b5060600190565b604681526000602082017f5468652053425420646f65736e27742062656c6f6e6720746f2074686520616481527f6472657373207468617420697320747279696e6720746f20636c61696d20746860208201526532903637b0b760d11b604082015291506108c1565b80610743565b60006109438284610801565b9392505050565b60006109568284610931565b50602001919050565b610180810161096e82876107a9565b61097b6040830186610749565b61098860c08301856107a9565b6109966101008301846107d5565b95945050505050565b608080825281016109b08187610823565b90506109bf602083018661073a565b81810360408301526109d18185610823565b90506109966060830184610931565b6020808252810161052681610857565b6020808252810161052681602d81527f54686520636c61696d20646f65736e277420736174697366792074686520717560208201526c32b93c9031b7b73234ba34b7b760991b604082015260600190565b60208082528101610526816019815278141c9bdbd9881d995c9a599a58d85d1a5bdb8819985a5b1959603a1b602082015260400190565b60208082528101610526816108c8565b602081016105268284610931565b6000610aa160405190565b9050610aad8282610b45565b919050565b60006001600160401b03821115610acb57610acb610b72565b5060200290565b60006001600160401b03821115610aeb57610aeb610b72565b610af482610b88565b60200192915050565b60006001600160a01b038216610526565b600061052682610afd565b60005b83811015610b34578181015183820152602001610b1c565b838111156103ae5750506000910152565b610b4e82610b88565b81018181106001600160401b0382111715610b6b57610b6b610b72565b6040525050565b634e487b7160e01b600052604160045260246000fd5b601f01601f191690565b610b9b81610afd565b8114610ba657600080fd5b50565b801515610b9b565b610b9b81610b0e565b80610b9b56fe697320656c656769626c6520666f722061206c6f616e20776974682061206372656469742073636f7265203e3da26469706673582212204b6cb51766dc2317610c5ee636371d4800b503a14b7d7d0d289c053ed7510e0464736f6c63430008070033",
  "devdoc": {
    "author": "Miquel A. Cabot",
    "kind": "dev",
    "methods": {},
    "title": "Verify if user is eligible for a loan",
    "version": 1
  },
  "userdoc": {
    "kind": "user",
    "methods": {},
    "notice": "Tests if the user is eligible for a loan based on the credit score",
    "version": 1
  },
  "storageLayout": {
    "storage": [
      {
        "astId": 1729,
        "contract": "contracts/VerifyCreditScore.sol:VerifyCreditScore",
        "label": "verifier",
        "offset": 0,
        "slot": "0",
        "type": "t_contract(IVerifier)1715"
      },
      {
        "astId": 1733,
        "contract": "contracts/VerifyCreditScore.sol:VerifyCreditScore",
        "label": "isElegibleForLoan",
        "offset": 0,
        "slot": "1",
        "type": "t_mapping(t_address,t_uint256)"
      }
    ],
    "types": {
      "t_address": {
        "encoding": "inplace",
        "label": "address",
        "numberOfBytes": "20"
      },
      "t_contract(IVerifier)1715": {
        "encoding": "inplace",
        "label": "contract IVerifier",
        "numberOfBytes": "20"
      },
      "t_mapping(t_address,t_uint256)": {
        "encoding": "mapping",
        "key": "t_address",
        "label": "mapping(address => uint256)",
        "numberOfBytes": "32",
        "value": "t_uint256"
      },
      "t_uint256": {
        "encoding": "inplace",
        "label": "uint256",
        "numberOfBytes": "32"
      }
    }
  }
}